:1000000041C465C464CA63C462C417CA60C45FC41F
:100010005EC45DC45CC45BC45AC459C458C4000007
:10002000000000000000002F000000000700070093
:1000300000147F147F1400242A7F2A12002313083F
:10004000646200364955225000000503000000009C
:100050001C224100000041221C000014083E08142C
:100060000008083E0808000000A06000000808081A
:100070000808000060600000002010080402003E34
:100080005149453E0000427F4000004261514946CF
:10009000002141454B31001814127F1000274545BF
:1000A0004539003C4A4949300001710905030036D1
:1000B0004949493600064949291E000036360000E4
:1000C00000005636000000081422410000141414E9
:1000D00014140000412214080002015109060032E4
:1000E0004959513E007C1211127C007F4949493622
:1000F000003E41414122007F4141221C007F49498D
:100100004941007F09090901003E4149497A007FC0
:100110000808087F0000417F4100002040413F0166
:10012000007F08142241007F40404040007F020CC5
:10013000027F007F0408107F003E4141413E007F66
:1001400009090906003E4151215E007F091929462F
:100150000046494949310001017F0101003F40400B
:10016000403F001F2040201F003F4038403F0063B9
:1001700014081463000708700807006151494543DB
:1001800000007F41410000020408102000004141AE
:100190007F00000402010204004040404040000093
:1001A00001020400002054545478007F484444382D
:1001B00000384444442000384444487F00385454B4
:1001C000541800087E0901020018A4A4A47C007F32
:1001D000080404780000447D4000004080847D00D5
:1001E000007F102844000000417F4000007C04187C
:1001F0000478007C0804047800384444443800FC47
:10020000242424180018242418FC007C0804040862
:1002100000485454542000043F444020003C4040D7
:10022000207C001C2040201C003C4030403C00440E
:1002300028102844001CA0A0A07C004464544C4416
:100240000008364141000000007F000000004141ED
:100250003608000804081008000000000000000034
:100260000000000000000000000000F80000000096
:10027000000000333000000000100C06100C0600D7
:10028000000000000000000040C07840C07840003E
:10029000043F04043F040400007088FC08300000A0
:1002A000001820FF211E0000F008F000E0180000F8
:1002B00000211C031E211E0000F0088870000000B1
:1002C0001E2123241927211010160E000000000003
:1002D0000000000000000000000000E01804020020
:1002E000000000071820400000020418E000000091
:1002F0000040201807000000404080F0804040008F
:100300000202010F01020200000000F000000000E4
:100310000101011F010101000000000000000000B8
:1003200080B070000000000000000000000000002D
:1003300000010101010101010000000000000000B6
:100340000030300000000000000000008060180451
:10035000006018060100000000E010080810E0002E
:10036000000F102020100F00001010F800000000F7
:100370000020203F2020000000700808088870003E
:1003800000302824222130000030088888483000BE
:100390000018202020110E000000C02010F80000DE
:1003A00000070424243F240000F808888808080077
:1003B0000019212020110E0000E01088881800008C
:1003C000000F112020110E0000380808C83808005E
:1003D0000000003F000000000070880808887000DE
:1003E000001C222121221C0000E010080810E0005F
:1003F0000000312222110F00000000C0C0000000E8
:10040000000000303000000000000080000000000C
:100410000000806000000000000080402010080004
:1004200000010204081020004040404040404000CD
:1004300004040404040404000008102040800000A8
:100440000020100804020100007048080808F000AD
:100450000000003036010000C030C828E810E0007D
:100460000718272423140B000000C038E000000008
:10047000203C23020227382008F888888870000072
:10048000203F202020110E00C03008080808380046
:10049000071820202010080008F808080810E000BD
:1004A000203F202020100F0008F88888E80810005E
:1004B000203F20202320180008F88888E808100032
:1004C000203F200003000000C0300808083800006A
:1004D00007182020221E020008F808000008F8086B
:1004E000203F210101213F20000808F808080000F2
:1004F0000020203F2020000000000808F808080025
:10050000C08080807F00000008F888C0281808009C
:10051000203F20012638200008F8080000000000D5
:10052000203F20202020300008F8F800F8F80800CC
:10053000203F003F003F200008F830C00008F808C6
:10054000203F200007183F00E01008080810E000D6
:100550000F10202020100F0008F808080808F000ED
:10056000203F210101010000E01008080810E00010
:100570000F18242438504F0008F8888888887000A5
:10058000203F2000030C3020007088080808380045
:100590000038202121221C00180808F8080818003B
:1005A0000000203F2000000008F808000008F808BC
:1005B000001F202020201F000878880000C838086D
:1005C000000007380E010000F80800F80008F800E5
:1005D000033C0700073C030008186880806818087F
:1005E00020302C03032C30200838C800C8380800FD
:1005F0000000203F2000000010080808C83808004C
:100600002038262120201800000000FE02020200EF
:100610000000007F40404000000C30C0000000009F
:10062000000000010638C00000020202FE000000C7
:10063000004040407F00000000000402020204006D
:1006400000000000000000000000000000000000AA
:100650008080808080808080000202040000000092
:10066000000000000000000000008080808000008A
:100670000019242222223F2008F800808000000078
:10068000003F112020110E0000000080808000003B
:10069000000E112020201100000000808088F8004A
:1006A000000E112020103F2000008080808000007C
:1006B000001F222222221300008080F088888818E0
:1006C0000020203F202000000000808080808000EB
:1006D000006B94949493600008F800808080000080
:1006E000203F210000203F2000809898000000005B
:1006F0000020203F2020000000000080989800008B
:1007000000C08080807F000008F8000080808000AA
:10071000203F24022D302000000808F800000000CF
:100720000020203F2020000080808080808080008A
:10073000203F20003F20003F80800080808000001C
:10074000203F210000203F200000808080800000AA
:10075000001F202020201F008080008080000000DB
:1007600080FFA12020110E0000000080808080000A
:10077000000E112020A0FF808080800080808000FB
:1007800020203F2120000100000080808080800028
:100790000033242424241900008080E0808000009D
:1007A0000000001F202000008080000000808000EA
:1007B000001F202020103F2080808000008080804B
:1007C00000010E30080601008080008000808080DB
:1007D0000F300C030C300F00008080008080800000
:1007E0000020312E0E31200080808000008080802B
:1007F00080818E70180601000080808080808000DB
:100800000021302C2221300000000000807C0202F8
:1008100000000000003F404000000000FF0000001A
:1008200000000000FF0000000002027C80000000C9
:100830000040403F000000000006010102020404E5
:100840000000000000000000C8A1A81FDA02AD30BF
:100850008D1400000000370000000000360000008A
:100860000000380002020202020202020202010239
:1008700004081020200410080102000004000000F9
:100880000000BD0D11241FBECFE5D2E0DEBFCDBFFD
:1008900011E0A0E6B0E0EEE0FDE102C005900D92AF
:1008A000AE38B107D9F721E0AEE8B1E001C01D9242
:1008B000AD3FB207E1F714E0C2E4D4E003C02197F2
:1008C000FE0112DAC134D107D1F70BD61ECA98CB7C
:1008D000823089F018F4813051F00895833019F096
:1008E000843009F008958CB58F7D8CBD08958AB54C
:1008F0008F778ABD08958AB58F7DFBCF1F93CF93E5
:10090000DF93E9E7F8E09491EFE6F8E0D491E5E6CB
:10091000F8E0C491CC23B1F0182F992311F0892F5E
:10092000D7DFEC2FF0E0EE0FFF1FE25AF74FA59153
:10093000B4918FB7F894EC91111108C0D095DE23D3
:10094000DC938FBFDF91CF911F910895DE2BF8CFFD
:10095000CF93DF93282F30E0F901E858F74F8491C7
:10096000F901E259F74FD491F901EC59F74FC491CD
:10097000CC2399F08111ACDFEC2FF0E0EE0FFF1FDC
:10098000E85AF74FA591B491EC91ED2381E090E006
:1009900009F480E0DF91CF91089580E090E0FACFF4
:1009A000CF93DF9390E0FC01E259F74F24918C59EB
:1009B000974FFC0184918823D1F090E0880F991F14
:1009C000FC01EE5AF74FA591B491FC01E25AF74FA2
:1009D000C591D491623071F49FB7F8943C91822F05
:1009E000809583238C93E8812E2B28839FBFDF91F2
:1009F000CF9108958FB7F894EC912E2B2C938FBF45
:100A0000F6CF3FB7F8948091F0019091F101A09159
:100A1000F201B091F30122B708B601FE05C02F3FE5
:100A200019F00196A11DB11D3FBFBA2FA92F982F14
:100A30008827BC01CD01620F711D811D911D46E00B
:100A4000660F771F881F991F4A95D1F708958F92D7
:100A50009F92AF92BF92CF92DF92EF92FF924B01A3
:100A60005C01CFDF6B017C01CCDF6C197D098E0945
:100A70009F09683E734081059105B0F321E0821A19
:100A80009108A108B10888EEC80E83E0D81EE11CC9
:100A9000F11C81149104A104B10431F7FF90EF908F
:100AA000DF90CF90BF90AF909F908F900895842F4C
:100AB00080950895AF92BF92CF92DF92EF92FF920E
:100AC0000F931F93CF93DF936C017B018B01040F76
:100AD000151FEB015E01AE18BF08C017D10759F012
:100AE0006991D601ED91FC910190F081E02DC60154
:100AF0000995892B79F7C501DF91CF911F910F914E
:100B0000FF90EF90DF90CF90BF90AF900895E0916D
:100B1000B301F091B4012091B5013091B601A90162
:100B200041705527309719F44115510579F03595E5
:100B30002795820F931F452B41F0DC012D913C91AD
:100B4000E20FF31F0190F081E02D099581E090E024
:100B50000895DDCFE091B001F091B1010994E091E9
:100B6000AE01F091AF010994E091AC01F091AD01BB
:100B70000994CF93C82FE091BE01F091BF01309747
:100B800051F09091FA018091F8014C2F6091F90198
:100B9000890F0995C82F8C2FE2DF811106C0DADF9B
:100BA000E3DF80E4DCDF8C2FDADF8091F8018F5FF8
:100BB0008093F801CF910895D7DF80E0D0CF0F93D5
:100BC0001F93CF93DF93082F162FD091FC01D80FDE
:100BD000C091FB01C60FC770C06BEEDF8C2FBFDF6B
:100BE0008D2F82958F708061BADF8D2F8F70B7DF68
:100BF000B1DF0093FA011093F9011092F801DF912F
:100C0000CF911F910F9108951F93CF93DF93C0E071
:100C100080916100C817C0F46C2F80E0D0DF809114
:100C200060009091FA01182F191B61F08093FA016E
:100C30009BDF80E494DFD0E080E09BDFDF5F1D136B
:100C4000FBCF88DFCF5FE4CF60E080E0DF91CF9122
:100C50001F91B5CF8091B20101C0660F8A95EAF766
:100C60009091F901960F9093F90180916100482FBE
:100C7000461B550B9417150621F01CF0861B80931C
:100C8000F9016091F90180E09ACFAF92BF92CF92C3
:100C9000DF92EF92FF920F931F93CF93DF93A09178
:100CA000BC01B091BD0112961C911297C62FD0E0E5
:100CB00011110DC014962C911497AE01421B5109CD
:100CC0001896ED91FC911997E40FF51F1491139666
:100CD000BC900091BB01E12EF12C4091FA012091D2
:100CE000600030E02E193F094217130619F014F086
:100CF0006B2DB0DF8091FA018E0D9F2D911D800F1D
:100D0000911D20916000281719060CF400E0A091B5
:100D1000BC01B091BD0114968C911497C81BD109E8
:100D200071F012968C91129713966C91139770E054
:100D30008823C9F090E094D7BE0192D7EC01AB2C88
:100D400013DF80E40CDFCE01282F2C1B211708F4C1
:100D500038C0CE0DDF1DD12C0D1509F443C080E045
:100D600008DFD394F9CFAE01F4E056954795FA9594
:100D7000E1F730E020E090E080E04217530781F097
:100D80006901CC0CDD1C1696ED91FC911797EC0DCA
:100D9000FD1DC590D4908C0D9D1D2F5F3F4FEDCF55
:100DA0009E01207F2C173D0740F61896ED91FC918F
:100DB0001997E20FF31FE4918E0F911D2F5F3F4FA4
:100DC000F1CF6C012FEFC21AD20AE091BC01F09171
:100DD000BD010190F081E02DE80FF91F8491C9DE7B
:100DE000C601B2CFB7DE6091F90131E06F5F80914B
:100DF000FA013A1528F06B198091FA01810F800FE2
:100E0000DEDEAA94A1109CCFDF91CF911F910F91AC
:100E1000FF90EF90DF90CF90BF90AF9008956D302E
:100E200031F1E091BC01F091BD016A3011F46381B0
:100E300011CF24816217D8F025812617C0F02091A8
:100E4000B9013091BA01A90155954795840F951FB5
:100E5000E091B701F091B80120FF08C0DC012D91AD
:100E60003C91E20FF31F0190F081E02D0994089569
:100E7000CF93DF93C091A801C093A7018091A601F1
:100E80008093A50183E064DDD82F8093A80184E0DE
:100E90005FDD8093A601C13029F5D11123C0C09335
:100EA000E5018091A3019091A40101969093A40182
:100EB0008093A3018FB7F8944091EC015091ED011C
:100EC0006091EE017091EF018FBF8091A50181309B
:100ED00021F49091A601992341F01092E401DF9151
:100EE000CF9108951092E501F0CF8093E4018091B5
:100EF000A1019091A20101969093A2018093A1017A
:100F00008FB7F8944091EC015091ED016091EE01A2
:100F10007091EF018FBFE3CF1092A00188E780931B
:100F20008E0181E00895E091A001E13148F4EF5F86
:100F3000E093A001F0E0E257FE4F808381E0089546
:100F400080E00895089590E080E008958FB7F894C8
:100F50004091EC015091ED016091EE017091EF0133
:100F60008FBF8FEF8093E6011092EA011092E801A3
:100F700045E150E060E270E08EEC91E0BFC6CF93B7
:100F8000DF9300D0CDB7DEB78EE190E04AD68983FB
:100F90008FE190E046D68A8389819A81019611F487
:100FA0001A82198289819A810F900F90DF91CF91D7
:100FB0000895A0D6C29AC29BFECF00C000C0000018
:100FC000C09800C000C0C298C09A779905C083E05D
:100FD0008093AB0180E0089581E008958EB98BE2A3
:100FE00000C000C000008DB9B29BFECF00C000C0A1
:100FF0008DB9769BF5CF00C000C000008FB19FEF88
:101000009FB9B89A0895CF92DF92EF92FF920F9313
:101010001F93CF93DF930091A00181E08093AB01F8
:1010200080918E0180FD03C083E08093AB01C2DF1D
:10103000882311F10F5F102FCEE8D1E0DD24DA9480
:10104000CC24C3947E018FEFE81AF80A8091AB019B
:10105000837009F447C0C29888818FB980EFBEDFE2
:10106000B8988EEFBBDF9091AB0180FF12C081E09A
:1010700090FF82E08093AB011092A0018091AB01C0
:10108000DF91CF911F910F91FF90EF90DF90CF9064
:101090000895892F8570843061F480918E0181607C
:1010A00080938E01C092AB0185DF811127C08AE059
:1010B000E1CF9E7F9093AB01E701115009F0C2CFC1
:1010C0001092A001C098C29AB29BFECF00C000C08F
:1010D000C09A00C000C00000759914C084E08093DD
:1010E000AB01CECFB89880EF79DF8883113021F43F
:1010F000DFB88EEF73DFE0CF1FB8FBCF102FCEE845
:10110000D1E0DBCF80E0BCCFC09AC29ABA9AB89A3D
:101110008FEF8FB98AE28DB980EF8EB9FDDE73DF74
:10112000882331F06AE070E080E090E090DCF6CF58
:1011300008950F93CF93DF93FC01862FE90130E0F0
:1011400020E0002311F027E535E03093BF01209324
:10115000BE01F093BD01E093BC01928191112FC0BB
:1011600092859093BB012FE037E03093B401209338
:10117000B3011092B6011092B50125E436E0309328
:10118000B8012093B7011092BA011092B9011092E0
:10119000B201642F14DDFE0101900020E9F73197C0
:1011A000AF014C1B5D0BBE0184EF91E083DC10921C
:1011B000BF011092BE01DF91CF910F91089510925F
:1011C000BB01D1CF7F928F929F92AF92BF92CF926D
:1011D000DF92EF92FF920F931F93CF93DF9314DD73
:1011E000C091CA01D091CB012197CE0165E170E099
:1011F00037D57C0180E290E09C012E5C3140690192
:1012000092E0792E0091CA011091CB010C171D07B5
:101210006CF1D7FD26C08091CC019091CD01C8170B
:10122000D907FCF48EEC882E81E0982E5601AE0C86
:10123000BF1CC501880D991DF4D4F40181934F01A1
:10124000F3EE8F16F1E09F06A1F71092E301472D10
:10125000401B4C0F00E02EEC31E060E08EE690E0A9
:1012600068DF219635E1E30EF11CCCCF1016110694
:101270000CF58091CC019091CD0180179107D4F0AD
:101280004AE060EC71E0C80199D4E0ECF1E0019033
:101290000020E9F7E15CF140FF27E054FE4F8AE3CC
:1012A0008083118200E020EC31E040E062E18EE6D4
:1012B00090E03FDF8091CA019091CB0197FD21C062
:1012C0002091CC013091CD0182179307D4F44AE0EC
:1012D00060EC71E0019672D4E0ECF1E00190002046
:1012E000E9F7E15CF140FF27E054FE4F8AE3808399
:1012F000118200E020EC31E043E062E18EE690E014
:1013000018DFDF91CF911F910F91FF90EF90DF9049
:10131000CF90BF90AF909F908F907F9008950F9344
:101320001F93CF93DF93EC01162FDA01FA0101909E
:101330000020E9F73197CF01841B950B68E070E03E
:1013400030E0CE36D30711F466E070E089D496958C
:10135000879560E4681B022F9D01412FCE01E9DED5
:10136000DF91CF911F910F910895EF92FF921F93FC
:10137000CF93DF9381E0C2DA6AE070E080E090E032
:1013800066DB1092FC011092FB0180E88093600004
:1013900084E080936100E091A901F091AA01099590
:1013A0000BDCC8E4D8E082E5E82E88E0F82EFE01E8
:1013B0001491812FD4DB811104C0CCDBFDDB812FA4
:1013C000CEDB2196EC16FD0691F7C4DB1DDCF4DBC9
:1013D0008FEAC5DBBFDB6AE070E080E090E037DBDE
:1013E00020E044E850E060E08EE690E098DF20E006
:1013F00042E950E061E089E790E091DF20E04AE9CE
:1014000050E063E08EE690E08ADFC4E6D0E062E37D
:1014100070E080E090E01BDB2BDD219741F08091B4
:10142000E501811104C08091E401882381F3DF91FB
:10143000CF911F91FF90EF90E7CB1F920F920FB6C5
:101440000F9211242F933F938F939F93AF93BF934A
:101450008091EC019091ED01A091EE01B091EF012E
:101460003091EB0120E3230F2D3758F54096A11D55
:10147000B11D2093EB018093EC019093ED01A093BB
:10148000EE01B093EF018091F0019091F101A091F4
:10149000F201B091F3010196A11DB11D8093F001FD
:1014A0009093F101A093F201B093F301BF91AF913A
:1014B0009F918F913F912F910F900FBE0F901F9092
:1014C000189523EB230F4196A11DB11DD2CF1F927A
:1014D0000F920FB60F9211240F900FBE0F901F9016
:1014E000189578948AB582608ABD8AB581608ABD74
:1014F00083B7826083BF83B7816083BF89B782600F
:1015000089BF80B7826080BF3298319A309A379A0B
:101510008CB580648CBD62E080E042DA62E082E0FB
:101520003FDA62E085E03CDA61E081E039DA62E0EE
:1015300083E036DA62E084E033DA08DD16DF93E038
:10154000E92EF12C8FE190E09C012E5C31401901D5
:1015500027E1622E712CCC24CA94DC2C55245394A0
:1015600080E0A82E80E0B82E8091EA01811142C06F
:101570008091E601882339F020E040EB50E060E004
:101580008EE690E0CCDE21E08091E801811120E040
:1015900045EB50E061E08EE690E0C1DE21E0809115
:1015A000E801813009F020E04FEB50E062E08EE688
:1015B00090E0B5DE21E08091E801823009F020E082
:1015C0004CEC50E063E08EE690E0A9DE51DC8091C7
:1015D000E8018093E7019091EA019093E60191116F
:1015E000CEC19091E501992309F431C190E00196B3
:1015F000B701E2C1813009F0BDC08091E6018130C0
:1016000009F442C0BCDC9093CD018093CC014AE048
:1016100060EC71E00196D2D200E025ED30E040E0D0
:1016200060E08EE690E085DD20EC31E040E062E1B4
:101630008EE690E07EDD29ED30E040E06EE38EE660
:1016400090E077DD01E08091E801853109F000E06C
:1016500025EE30E043E060E08EE690E06ADD01E0F8
:101660008091E801863109F000E02EEE30E043E0A1
:1016700066E58EE690E05DDD00E02EEC31E041E0D5
:1016800060E08EE690E055DD2091E8012531F8F428
:101690008091E9016CE0F5D2963008F068C087E5EA
:1016A00095E09093BF018093BE01822F66E0CFD278
:1016B00061E085DAE091E801F0E0E253FE4F6081FD
:1016C00084EF91E024DA1092BF011092BE01809164
:1016D000E8019091E701891709F478CF8531C0F0CE
:1016E00001E0853109F000E025EE30E043E060E004
:1016F0008EE690E01EDD01E08091E801863109F080
:1017000000E02EEE30E043E066E58EE690E011DD8D
:101710008091E701853188F41092BF011092BE01DB
:1017200066E095D261E04BDAE091E701F0E0E25348
:10173000FE4F608184EF91E0EAD98091E701853125
:1017400041F400E025EE30E043E060E08EE690E01A
:10175000F0DC8091E701863109F038CF00E02EEE11
:1017600030E043E066E58EE690E0E3DC2FCF90E0EA
:1017700080E097CF823081F58091E6018230A9F038
:1017800020E046EF50E060E08EE690E0C8DD20E02B
:101790004CE051E061E08EE690E0C1DD20E04EECEF
:1017A00051E062E08EE690E0BADD01E08091E80170
:1017B000811100E02EE131E043E060E08EE690E050
:1017C000B8DC01E08091E801813009F000E02EE210
:1017D00031E043E068E6C7CF833009F0F7CE80916F
:1017E000E601833009F0EEDC01E08091E80181112F
:1017F00000E023E331E040E06EE68EE690E099DC25
:1018000001E08091E801813009F000E027E331E058
:1018100043E06EE68EE690E08CDC01E08091E8012A
:10182000823009F000E02BE331E043E06EE38EE626
:1018300090E07FDC00E024E431E040E060E08EE610
:1018400090E077DC24E431E043E060E08CCF9091DD
:10185000E401992391F0811125C05092EA01D4D975
:1018600045E150E060E270E08EEC91E047D21092EA
:10187000E3011092E8011092E7018091EA018130C2
:1018800009F076C164E170E080E090E0E0D88091FA
:10189000E9018F5F8093E901A114B10409F464CEDA
:1018A000AFD35CCE813039F56ADB9093CD01809364
:1018B000CC01AAD98091CC019091CD01009789F4F7
:1018C00020E048E451E061E089E790E028DD6CED3C
:1018D00075E080E090E0BBD897D98FEF8093E60168
:1018E000CCCF9093CB018093CA0183E08093EA012F
:1018F0001092E801C2CF823009F0BFCF85D920E035
:1019000046E551E060E08EE690E009DD20E043E648
:1019100051E061E089E790E002DD20E04FE651E030
:1019200063E08EE690E0FBDC68EB7BE080E090E03B
:101930008ED86AD90BDB68D93FD98EEA10D90AD97B
:101940006AE070E080E090E082D880E0D7D78BB783
:1019500080628BBFAB9AAC9A379885B7877E8061DF
:1019600085BF85B7806285BF78948895F894AB98D9
:1019700085B78F7D85BF379A7894F7DC7ECF91301D
:1019800009F051C09091E5019923C1F0282F30E072
:101990008150833170F4F901E253FE4F808180322F
:1019A00041F431978081803221F485E18093E80110
:1019B00064CFC9010196B30170D1F8CF9091E401D1
:1019C000992309F45ACF8531F8F4E82FF0E0E25377
:1019D000FE4F8081803291F0982F9F7D91549931F4
:1019E00020F090ED980F993018F48F5F808345CFE9
:1019F0008A3531F0893331F481E6F8CF81E4F6CFCE
:101A000080E3F4CF80E2F2CF853131F41092EA0125
:101A10001092E801F9D831CF863109F02ECF82E05B
:101A20008093EA01F5CF923009F062C09091E50110
:101A3000992329F090E0019681709927B7CF909172
:101A4000E401992309F419CF811104C0DDD8509223
:101A5000EA0113CF813009F010CFD6D890DA9093F5
:101A6000CD018093CC0165E170E0FAD0CEECD1E0FD
:101A70008101080F191F499048018C0E9D1EC40159
:101A8000D0D0481619F0642DC401D3D083EE91E074
:101A90008C179D0781F7C091CC01D091CD01219683
:101AA000D093CD01C093CC018EE190E0BAD08C17D9
:101AB00021F06C2F8EE190E0BCD0C091CD018FE180
:101AC00090E0AFD0C81721F06C2F8FE190E0B1D03B
:101AD00020E045E851E061E089E790E020DC6CED32
:101AE00075E080E090E0B3D78FD81092EA0100CF84
:101AF000933009F0C2CE9091E501911177CD90918C
:101B0000E401992309F4B9CE811114C08091CA016E
:101B10009091CB0101978F3F2FEF92072CF090937C
:101B2000CB018093CA0104C0D092CB01C092CA01FC
:101B300049DBA3CE813099F42091CA013091CB01C9
:101B40002F5F3F4F3093CB012093CA018091CC018E
:101B50009091CD010296821793070CF3E9CF823062
:101B600009F08BCE51D81092EA015092E80185CE4F
:101B700063E070E080E090E089CEE4EFF1E0138272
:101B8000128284E898E09093AA018093A9018CE8DE
:101B900097E09093AD018093AC0183E997E0909337
:101BA000AF018093AE0183E098E09093B101809300
:101BB000B00186E690E0918380830895BB274A3088
:101BC00031F4992322F4BDE2909581959F4F01C095
:101BD000BB27FB015527AA27880F991FAA1FA41707
:101BE00010F0A41B83955051B9F7A05DAA3308F0FB
:101BF000A95DA193009779F7B111B1931192CB012F
:101C000000C0DC01FC01672F71917723E1F7329767
:101C100004C07C916D9370836291AE17BF07C8F3C7
:101C20000895E199FECF9FBB8EBBE09A99278DB3B3
:101C30000895262FE199FECF1CBA9FBB8EBB2DBB0A
:101C40000FB6F894E29AE19A0FBE01960895002427
:101C500080FD060E660F11F08695D1F7802D089550
:101C60000024552704C0080E591F880F991F00979C
:101C700029F076956795B8F37105B9F7802D952F02
:101C80000895991B79E004C0991F961708F0961BD8
:101C9000881F7A95C9F78095089597FB072E16F44B
:101CA000009406D077FD08D00BD007FC05D03EF499
:101CB000909581959F4F0895709561957F4F0895F8
:101CC000AA1BBB1B51E107C0AA1FBB1FA617B70762
:101CD00010F0A61BB70B881F991F5A95A9F780957E
:101CE0009095BC01CD010895EE0FFF1F0590F49172
:101CF000E02D099481E090E0F89407C0DC0101C078
:0E1D00006D9341505040E0F70895F894FFCFE6
:101D0E00800400000000A9055A05A307A2071E00C3
:101D1E000601207E000000000058020802207E000E
:101D2E0000000000656C656B74726F6E69637A6E8D
:101D3E0079004C6F67626F6F6B006B65737A205022
:101D4E00726F626C656D20436F6C6C61747A6100AA
:101D5E004D656E75005B5A616C6F67756A5D005BF1
:101D6E0050727A65676C6164616A5D005B4B6F6E81
:101D7E006965635D004E723A00506F64616A206E51
:101D8E0069636B3A005B416E756C756A5D005B440E
:101D9E00616C656A5D00506F7477696572647A2054
:101DAE006F7374617465637A6E696500706F7072BB
:101DBE0061776E6F7363206E69636B613A005B636C
:101DCE006F666E696A2F706F707261775D005B4F20
:101DDE004B5D005B5E5D005B765D005B3C2D6D6573
:101DEE006E755D004E7220004C6F67626F6F6B20D8
:101DFE00707573747900446F207769647A656E69C3
:101E0E00612E005A6173797069616D2E2E2E0062FB
:101E1E0079206F737A637A65647A61632062617484
:0E1E2E0065726965005A41504953414E4F009C
:00000001FF
